{
  "contractName": "DePocketToken",
  "abi": [
    {
      "inputs": [],
      "stateMutability": "nonpayable",
      "type": "constructor"
    },
    {
      "anonymous": false,
      "inputs": [
        {
          "indexed": true,
          "internalType": "address",
          "name": "owner",
          "type": "address"
        },
        {
          "indexed": true,
          "internalType": "address",
          "name": "spender",
          "type": "address"
        },
        {
          "indexed": false,
          "internalType": "uint256",
          "name": "value",
          "type": "uint256"
        }
      ],
      "name": "Approval",
      "type": "event"
    },
    {
      "anonymous": false,
      "inputs": [
        {
          "indexed": false,
          "internalType": "uint256",
          "name": "_id",
          "type": "uint256"
        },
        {
          "indexed": false,
          "internalType": "uint256",
          "name": "amount",
          "type": "uint256"
        },
        {
          "indexed": false,
          "internalType": "address",
          "name": "to",
          "type": "address"
        }
      ],
      "name": "CreateTransferRequest",
      "type": "event"
    },
    {
      "anonymous": false,
      "inputs": [
        {
          "indexed": true,
          "internalType": "address",
          "name": "from",
          "type": "address"
        },
        {
          "indexed": true,
          "internalType": "address",
          "name": "to",
          "type": "address"
        },
        {
          "indexed": false,
          "internalType": "uint256",
          "name": "value",
          "type": "uint256"
        }
      ],
      "name": "Transfer",
      "type": "event"
    },
    {
      "inputs": [],
      "name": "accountant",
      "outputs": [
        {
          "internalType": "address",
          "name": "",
          "type": "address"
        }
      ],
      "stateMutability": "view",
      "type": "function",
      "constant": true
    },
    {
      "inputs": [
        {
          "internalType": "address",
          "name": "owner",
          "type": "address"
        },
        {
          "internalType": "address",
          "name": "spender",
          "type": "address"
        }
      ],
      "name": "allowance",
      "outputs": [
        {
          "internalType": "uint256",
          "name": "",
          "type": "uint256"
        }
      ],
      "stateMutability": "view",
      "type": "function",
      "constant": true
    },
    {
      "inputs": [
        {
          "internalType": "address",
          "name": "spender",
          "type": "address"
        },
        {
          "internalType": "uint256",
          "name": "amount",
          "type": "uint256"
        }
      ],
      "name": "approve",
      "outputs": [
        {
          "internalType": "bool",
          "name": "",
          "type": "bool"
        }
      ],
      "stateMutability": "nonpayable",
      "type": "function"
    },
    {
      "inputs": [
        {
          "internalType": "address",
          "name": "account",
          "type": "address"
        }
      ],
      "name": "balanceOf",
      "outputs": [
        {
          "internalType": "uint256",
          "name": "",
          "type": "uint256"
        }
      ],
      "stateMutability": "view",
      "type": "function",
      "constant": true
    },
    {
      "inputs": [],
      "name": "decimals",
      "outputs": [
        {
          "internalType": "uint8",
          "name": "",
          "type": "uint8"
        }
      ],
      "stateMutability": "view",
      "type": "function",
      "constant": true
    },
    {
      "inputs": [
        {
          "internalType": "address",
          "name": "spender",
          "type": "address"
        },
        {
          "internalType": "uint256",
          "name": "subtractedValue",
          "type": "uint256"
        }
      ],
      "name": "decreaseAllowance",
      "outputs": [
        {
          "internalType": "bool",
          "name": "",
          "type": "bool"
        }
      ],
      "stateMutability": "nonpayable",
      "type": "function"
    },
    {
      "inputs": [
        {
          "internalType": "address",
          "name": "spender",
          "type": "address"
        },
        {
          "internalType": "uint256",
          "name": "addedValue",
          "type": "uint256"
        }
      ],
      "name": "increaseAllowance",
      "outputs": [
        {
          "internalType": "bool",
          "name": "",
          "type": "bool"
        }
      ],
      "stateMutability": "nonpayable",
      "type": "function"
    },
    {
      "inputs": [],
      "name": "name",
      "outputs": [
        {
          "internalType": "string",
          "name": "",
          "type": "string"
        }
      ],
      "stateMutability": "view",
      "type": "function",
      "constant": true
    },
    {
      "inputs": [],
      "name": "president",
      "outputs": [
        {
          "internalType": "address",
          "name": "",
          "type": "address"
        }
      ],
      "stateMutability": "view",
      "type": "function",
      "constant": true
    },
    {
      "inputs": [],
      "name": "symbol",
      "outputs": [
        {
          "internalType": "string",
          "name": "",
          "type": "string"
        }
      ],
      "stateMutability": "view",
      "type": "function",
      "constant": true
    },
    {
      "inputs": [],
      "name": "totalSupply",
      "outputs": [
        {
          "internalType": "uint256",
          "name": "",
          "type": "uint256"
        }
      ],
      "stateMutability": "view",
      "type": "function",
      "constant": true
    },
    {
      "inputs": [
        {
          "internalType": "address",
          "name": "to",
          "type": "address"
        },
        {
          "internalType": "uint256",
          "name": "amount",
          "type": "uint256"
        }
      ],
      "name": "transfer",
      "outputs": [
        {
          "internalType": "bool",
          "name": "",
          "type": "bool"
        }
      ],
      "stateMutability": "nonpayable",
      "type": "function"
    },
    {
      "inputs": [
        {
          "internalType": "address",
          "name": "from",
          "type": "address"
        },
        {
          "internalType": "address",
          "name": "to",
          "type": "address"
        },
        {
          "internalType": "uint256",
          "name": "amount",
          "type": "uint256"
        }
      ],
      "name": "transferFrom",
      "outputs": [
        {
          "internalType": "bool",
          "name": "",
          "type": "bool"
        }
      ],
      "stateMutability": "nonpayable",
      "type": "function"
    },
    {
      "inputs": [],
      "name": "vicePresident",
      "outputs": [
        {
          "internalType": "address",
          "name": "",
          "type": "address"
        }
      ],
      "stateMutability": "view",
      "type": "function",
      "constant": true
    },
    {
      "inputs": [
        {
          "internalType": "address",
          "name": "newPresident",
          "type": "address"
        }
      ],
      "name": "setPresident",
      "outputs": [],
      "stateMutability": "nonpayable",
      "type": "function"
    },
    {
      "inputs": [],
      "name": "getLimitAmountOfVP",
      "outputs": [
        {
          "internalType": "uint256",
          "name": "",
          "type": "uint256"
        }
      ],
      "stateMutability": "view",
      "type": "function",
      "constant": true
    },
    {
      "inputs": [
        {
          "internalType": "uint256",
          "name": "amount",
          "type": "uint256"
        }
      ],
      "name": "setLimitAmountOfVP",
      "outputs": [],
      "stateMutability": "nonpayable",
      "type": "function"
    },
    {
      "inputs": [
        {
          "internalType": "uint256",
          "name": "amount",
          "type": "uint256"
        }
      ],
      "name": "deposit",
      "outputs": [],
      "stateMutability": "nonpayable",
      "type": "function"
    },
    {
      "inputs": [
        {
          "internalType": "uint256",
          "name": "amount",
          "type": "uint256"
        }
      ],
      "name": "withdraw",
      "outputs": [],
      "stateMutability": "nonpayable",
      "type": "function"
    },
    {
      "inputs": [
        {
          "internalType": "uint256",
          "name": "id",
          "type": "uint256"
        }
      ],
      "name": "getRequest",
      "outputs": [
        {
          "internalType": "uint256",
          "name": "amount",
          "type": "uint256"
        },
        {
          "internalType": "address",
          "name": "to",
          "type": "address"
        }
      ],
      "stateMutability": "view",
      "type": "function",
      "constant": true
    },
    {
      "inputs": [
        {
          "internalType": "address",
          "name": "newAccountant",
          "type": "address"
        }
      ],
      "name": "setAccountant",
      "outputs": [],
      "stateMutability": "nonpayable",
      "type": "function"
    },
    {
      "inputs": [
        {
          "internalType": "uint256",
          "name": "amount",
          "type": "uint256"
        },
        {
          "internalType": "address",
          "name": "to",
          "type": "address"
        }
      ],
      "name": "createTransferRequest",
      "outputs": [
        {
          "internalType": "uint256",
          "name": "",
          "type": "uint256"
        }
      ],
      "stateMutability": "nonpayable",
      "type": "function"
    },
    {
      "inputs": [
        {
          "internalType": "uint256",
          "name": "requestId",
          "type": "uint256"
        }
      ],
      "name": "confirmRequest",
      "outputs": [],
      "stateMutability": "nonpayable",
      "type": "function"
    },
    {
      "inputs": [
        {
          "internalType": "uint256",
          "name": "requestId",
          "type": "uint256"
        }
      ],
      "name": "transferByAccountant",
      "outputs": [],
      "stateMutability": "nonpayable",
      "type": "function"
    }
  ],
  "bytecode": "0x60806040526101f46008553480156200001757600080fd5b50604080518082018252600e81526d2232a837b1b5b2ba102a37b5b2b760911b602080830191825283518085019094526002845261044560f41b9084015281519192916200006891600391620001b5565b5080516200007e906004906020840190620001b5565b5050506200009630620f4240620000cd60201b60201c565b600060095560058054336001600160a01b0319918216811790925560068054821683179055600780549091169091179055620002bf565b6001600160a01b038216620001285760405162461bcd60e51b815260206004820152601f60248201527f45524332303a206d696e7420746f20746865207a65726f206164647265737300604482015260640160405180910390fd5b80600260008282546200013c91906200025b565b90915550506001600160a01b038216600090815260208190526040812080548392906200016b9084906200025b565b90915550506040518181526001600160a01b038316906000907fddf252ad1be2c89b69c2b068fc378daa952ba7f163c4a11628f55a4df523b3ef9060200160405180910390a35050565b828054620001c39062000282565b90600052602060002090601f016020900481019282620001e7576000855562000232565b82601f106200020257805160ff191683800117855562000232565b8280016001018555821562000232579182015b828111156200023257825182559160200191906001019062000215565b506200024092915062000244565b5090565b5b8082111562000240576000815560010162000245565b600082198211156200027d57634e487b7160e01b600052601160045260246000fd5b500190565b600181811c908216806200029757607f821691505b60208210811415620002b957634e487b7160e01b600052602260045260246000fd5b50919050565b6112b580620002cf6000396000f3fe608060405234801561001057600080fd5b50600436106101585760003560e01c80636497c004116100c3578063b6b55f251161007c578063b6b55f25146102ee578063b9424b4314610301578063be108a7514610314578063c58343ef1461031c578063cb29f3f714610370578063dd62ed3e1461038357600080fd5b80636497c0041461027157806370a082311461028457806395d89b41146102ad578063a457c2d7146102b5578063a6b2c437146102c8578063a9059cbb146102db57600080fd5b8063324a137611610115578063324a1376146101e7578063395093511461021257806348ea7127146102255780634e4dd230146102385780634fb3ccc51461024b57806363bf91461461025e57600080fd5b806306fdde031461015d578063095ea7b31461017b57806318160ddd1461019e57806323b872dd146101b05780632e1a7d4d146101c3578063313ce567146101d8575b600080fd5b6101656103bc565b6040516101729190611052565b60405180910390f35b61018e6101893660046110c3565b61044e565b6040519015158152602001610172565b6002545b604051908152602001610172565b61018e6101be3660046110ed565b610466565b6101d66101d1366004611129565b61048a565b005b60405160128152602001610172565b6005546101fa906001600160a01b031681565b6040516001600160a01b039091168152602001610172565b61018e6102203660046110c3565b61066d565b6101d6610233366004611142565b6106ac565b6101a2610246366004611164565b610744565b6007546101fa906001600160a01b031681565b6101d661026c366004611129565b610833565b6101d661027f366004611129565b610862565b6101a2610292366004611142565b6001600160a01b031660009081526020819052604090205490565b610165610a37565b61018e6102c33660046110c3565b610a46565b6101d66102d6366004611129565b610ad8565b61018e6102e93660046110c3565b610bd7565b6101d66102fc366004611129565b610be5565b6101d661030f366004611142565b610c82565b6008546101a2565b61035361032a366004611129565b6000908152600b60205260409020600281015460019091015490916001600160a01b0390911690565b604080519283526001600160a01b03909116602083015201610172565b6006546101fa906001600160a01b031681565b6101a2610391366004611190565b6001600160a01b03918216600090815260016020908152604080832093909416825291909152205490565b6060600380546103cb906111ba565b80601f01602080910402602001604051908101604052809291908181526020018280546103f7906111ba565b80156104445780601f1061041957610100808354040283529160200191610444565b820191906000526020600020905b81548152906001019060200180831161042757829003601f168201915b5050505050905090565b60003361045c818585610cce565b5060019392505050565b600033610474858285610df2565b61047f858585610e84565b506001949350505050565b6005546001600160a01b03163314806104ad57506006546001600160a01b031633145b6104d25760405162461bcd60e51b81526004016104c9906111f5565b60405180910390fd5b6040516370a0823160e01b815230600482018190526000916370a0823190602401602060405180830381865afa158015610510573d6000803e3d6000fd5b505050506040513d601f19601f82011682018060405250810190610534919061121e565b90508181116105855760405162461bcd60e51b815260206004820152601d60248201527f416d6f756e74204578636565642043757272656e742042616c616e636500000060448201526064016104c9565b60085482106105f3576005546001600160a01b031633146105f35760405162461bcd60e51b815260206004820152602260248201527f416d6f756e742057697468204472617720457863656564205065726d6973736960448201526137b760f11b60648201526084016104c9565b60055460405163a9059cbb60e01b81526001600160a01b03909116600482015260248101839052309063a9059cbb906044016020604051808303816000875af1158015610644573d6000803e3d6000fd5b505050506040513d601f19601f820116820180604052508101906106689190611237565b505050565b3360008181526001602090815260408083206001600160a01b038716845290915281205490919061045c90829086906106a7908790611259565b610cce565b6007546001600160a01b03163314806106cf57506005546001600160a01b031633145b806106e457506006546001600160a01b031633145b6107225760405162461bcd60e51b815260206004820152600f60248201526e5065726d697373696f6e2064656e7960881b60448201526064016104c9565b600780546001600160a01b0319166001600160a01b0392909216919091179055565b6007546000906001600160a01b031633146107715760405162461bcd60e51b81526004016104c9906111f5565b6001600960008282546107849190611259565b90915550506040805160608082018352600980548084526001600160a01b0387811660208087018281528789018c81526000958652600b8352948990208851815590516001820180546001600160a01b03191691909516179093559251600290920191909155915485519081529081018890529384015290917f8be14e933950217d32310f80c7b8385480bc291b72e6c56429ec448b67f2d85c910160405180910390a1505060095492915050565b6005546001600160a01b0316331461085d5760405162461bcd60e51b81526004016104c9906111f5565b600855565b6007546001600160a01b0316331461088c5760405162461bcd60e51b81526004016104c9906111f5565b6000818152600a602052604090205460ff1615156001146108ef5760405162461bcd60e51b815260206004820152601e60248201527f5472616e73616374696f6e206861736e277420636f6e6669726d20796574000060448201526064016104c9565b6000818152600b6020526040808220600281015460019091015491516370a0823160e01b8152306004820181905291936001600160a01b039093169291906370a0823190602401602060405180830381865afa158015610953573d6000803e3d6000fd5b505050506040513d601f19601f82011682018060405250810190610977919061121e565b9050828110156109bf5760405162461bcd60e51b8152602060048201526013602482015272125b9cdd59999a58da595b9d08185b5bdd5b9d606a1b60448201526064016104c9565b60405163a9059cbb60e01b81526001600160a01b038316600482015260248101849052309063a9059cbb906044016020604051808303816000875af1158015610a0c573d6000803e3d6000fd5b505050506040513d601f19601f82011682018060405250810190610a309190611237565b5050505050565b6060600480546103cb906111ba565b3360008181526001602090815260408083206001600160a01b038716845290915281205490919083811015610acb5760405162461bcd60e51b815260206004820152602560248201527f45524332303a2064656372656173656420616c6c6f77616e63652062656c6f77604482015264207a65726f60d81b60648201526084016104c9565b61047f8286868403610cce565b6005546001600160a01b0316331480610afb57506006546001600160a01b031633145b610b175760405162461bcd60e51b81526004016104c9906111f5565b6000818152600a602052604090205460ff1615610b765760405162461bcd60e51b815260206004820152601760248201527f5265717565737420616c726561647920636f6e6669726d00000000000000000060448201526064016104c9565b6000818152600b60205260409020600201546008548110610bbb576005546001600160a01b03163314610bbb5760405162461bcd60e51b81526004016104c9906111f5565b506000908152600a60205260409020805460ff19166001179055565b60003361045c818585610e84565b6005546001600160a01b03163314610c0f5760405162461bcd60e51b81526004016104c9906111f5565b6040516323b872dd60e01b8152336004820152306024820181905260448201839052906323b872dd906064016020604051808303816000875af1158015610c5a573d6000803e3d6000fd5b505050506040513d601f19601f82011682018060405250810190610c7e9190611237565b5050565b6005546001600160a01b03163314610cac5760405162461bcd60e51b81526004016104c9906111f5565b600580546001600160a01b0319166001600160a01b0392909216919091179055565b6001600160a01b038316610d305760405162461bcd60e51b8152602060048201526024808201527f45524332303a20617070726f76652066726f6d20746865207a65726f206164646044820152637265737360e01b60648201526084016104c9565b6001600160a01b038216610d915760405162461bcd60e51b815260206004820152602260248201527f45524332303a20617070726f766520746f20746865207a65726f206164647265604482015261737360f01b60648201526084016104c9565b6001600160a01b0383811660008181526001602090815260408083209487168084529482529182902085905590518481527f8c5be1e5ebec7d5bd14f71427d1e84f3dd0314c0f7b2291e5b200ac8c7c3b925910160405180910390a3505050565b6001600160a01b038381166000908152600160209081526040808320938616835292905220546000198114610e7e5781811015610e715760405162461bcd60e51b815260206004820152601d60248201527f45524332303a20696e73756666696369656e7420616c6c6f77616e636500000060448201526064016104c9565b610e7e8484848403610cce565b50505050565b6001600160a01b038316610ee85760405162461bcd60e51b815260206004820152602560248201527f45524332303a207472616e736665722066726f6d20746865207a65726f206164604482015264647265737360d81b60648201526084016104c9565b6001600160a01b038216610f4a5760405162461bcd60e51b815260206004820152602360248201527f45524332303a207472616e7366657220746f20746865207a65726f206164647260448201526265737360e81b60648201526084016104c9565b6001600160a01b03831660009081526020819052604090205481811015610fc25760405162461bcd60e51b815260206004820152602660248201527f45524332303a207472616e7366657220616d6f756e7420657863656564732062604482015265616c616e636560d01b60648201526084016104c9565b6001600160a01b03808516600090815260208190526040808220858503905591851681529081208054849290610ff9908490611259565b92505081905550826001600160a01b0316846001600160a01b03167fddf252ad1be2c89b69c2b068fc378daa952ba7f163c4a11628f55a4df523b3ef8460405161104591815260200190565b60405180910390a3610e7e565b600060208083528351808285015260005b8181101561107f57858101830151858201604001528201611063565b81811115611091576000604083870101525b50601f01601f1916929092016040019392505050565b80356001600160a01b03811681146110be57600080fd5b919050565b600080604083850312156110d657600080fd5b6110df836110a7565b946020939093013593505050565b60008060006060848603121561110257600080fd5b61110b846110a7565b9250611119602085016110a7565b9150604084013590509250925092565b60006020828403121561113b57600080fd5b5035919050565b60006020828403121561115457600080fd5b61115d826110a7565b9392505050565b6000806040838503121561117757600080fd5b82359150611187602084016110a7565b90509250929050565b600080604083850312156111a357600080fd5b6111ac836110a7565b9150611187602084016110a7565b600181811c908216806111ce57607f821691505b602082108114156111ef57634e487b7160e01b600052602260045260246000fd5b50919050565b6020808252600f908201526e5065726d697373696f6e2044656e7960881b604082015260600190565b60006020828403121561123057600080fd5b5051919050565b60006020828403121561124957600080fd5b8151801515811461115d57600080fd5b6000821982111561127a57634e487b7160e01b600052601160045260246000fd5b50019056fea2646970667358221220bcbe0d44588b6d20fa225824845198f929944e1ac9d7faf03c27f2dab9e0ea6c64736f6c634300080c0033",
  "immutableReferences": {},
  "source": "pragma solidity ^0.8.0;\nimport \"@openzeppelin/contracts/token/ERC20/ERC20.sol\";\nimport \"@openzeppelin/contracts/token/ERC20/IERC20.sol\";\n\ncontract DePocketToken is ERC20 {\n    address public president ;\n    address public vicePresident;\n    address public accountant;\n    uint private _limitAmoutOfVP = 500;\n    uint private _id;\n    struct TransferRequest {\n        uint id;\n        address to;\n        uint amount;\n    }\n    mapping(uint=> bool) private isApproved;\n    mapping(uint => TransferRequest) private requests;\n\n    constructor() ERC20(\"DePocket Token\", \"DP\"){\n        _mint(address(this), 1000000);\n        _id = 0;\n        president = msg.sender;\n        vicePresident = msg.sender;\n        accountant = msg.sender;\n    }\n    modifier onlyCLevel(){\n        require(msg.sender == president || msg.sender == vicePresident, \"Permission Deny\");\n        _;\n    }\n    modifier onlyPresident(){\n        require(msg.sender == president, \"Permission Deny\");\n        _;\n    }\n    modifier onlyVicePresident(){\n        require(msg.sender == vicePresident, \"Permission Deny\");\n        _;\n    }\n    modifier onlyAccountant(){\n        require(msg.sender == accountant, \"Permission Deny\");\n        _;\n    }\n    function setPresident(address newPresident) external onlyPresident {\n        president = newPresident;\n    }\n    function getLimitAmountOfVP() external view returns(uint){\n        return _limitAmoutOfVP;\n    }\n    function setLimitAmountOfVP(uint amount) external onlyPresident {\n        _limitAmoutOfVP = amount;\n    }\n    function deposit(uint amount) external onlyPresident {\n        IERC20(address(this)).transferFrom(msg.sender, address(this), amount);\n\n    }\n\n    function withdraw(uint amount) external onlyCLevel {\n        uint currentBalance = IERC20(address(this)).balanceOf(address(this));\n        require(currentBalance > amount, \"Amount Exceed Current Balance\");\n        if(amount >= _limitAmoutOfVP){\n            require(msg.sender == president, \"Amount With Draw Exceed Permission\");\n        }\n        IERC20(address(this)).transfer(president, amount);\n    }\n    function getRequest(uint id) external view returns(uint amount, address to){\n        amount = requests[id].amount;\n        to = requests[id].to;\n    }\n    function setAccountant (address newAccountant) external {\n        require(msg.sender == accountant || msg.sender == president|| msg.sender == vicePresident, \"Permission deny\");\n        accountant = newAccountant;\n    }\n    event CreateTransferRequest(uint _id, uint amount, address to);\n    function createTransferRequest(uint amount, address to) external onlyAccountant returns(uint){\n        _id +=1;\n        TransferRequest memory request = TransferRequest(_id, to, amount);\n        requests[_id] = request;\n        emit CreateTransferRequest(_id, amount, to);\n        return _id;\n    }\n    function confirmRequest(uint requestId) external onlyCLevel{\n        require(isApproved[requestId]== false, \"Request already confirm\");\n        uint amount = requests[requestId].amount;\n        if(amount >= _limitAmoutOfVP){\n            require(msg.sender==president, \"Permission Deny\");\n        }\n        isApproved[requestId] = true;\n    }\n    function transferByAccountant(uint requestId) external onlyAccountant {\n        require(isApproved[requestId] == true, \"Transaction hasn't confirm yet\");\n        uint amount = requests[requestId].amount;\n        address to = requests[requestId].to;\n        uint currentBalance = IERC20(address(this)).balanceOf(address(this));\n        require(currentBalance >= amount , \"Insufficient amount\");\n        IERC20(address(this)).transfer(to, amount);\n    }\n\n}",
  "sourcePath": "/home/dungdv/source/depocket/contracts/DePocketToken.sol",
  "compiler": {
    "name": "solc",
    "version": "0.8.12+commit.f00d7308.Emscripten.clang"
  },
  "schemaVersion": "3.4.3",
  "updatedAt": "2022-02-24T13:28:10.255Z",
  "networkType": "ethereum",
  "devdoc": {
    "kind": "dev",
    "methods": {
      "allowance(address,address)": {
        "details": "See {IERC20-allowance}."
      },
      "approve(address,uint256)": {
        "details": "See {IERC20-approve}. NOTE: If `amount` is the maximum `uint256`, the allowance is not updated on `transferFrom`. This is semantically equivalent to an infinite approval. Requirements: - `spender` cannot be the zero address."
      },
      "balanceOf(address)": {
        "details": "See {IERC20-balanceOf}."
      },
      "decimals()": {
        "details": "Returns the number of decimals used to get its user representation. For example, if `decimals` equals `2`, a balance of `505` tokens should be displayed to a user as `5.05` (`505 / 10 ** 2`). Tokens usually opt for a value of 18, imitating the relationship between Ether and Wei. This is the value {ERC20} uses, unless this function is overridden; NOTE: This information is only used for _display_ purposes: it in no way affects any of the arithmetic of the contract, including {IERC20-balanceOf} and {IERC20-transfer}."
      },
      "decreaseAllowance(address,uint256)": {
        "details": "Atomically decreases the allowance granted to `spender` by the caller. This is an alternative to {approve} that can be used as a mitigation for problems described in {IERC20-approve}. Emits an {Approval} event indicating the updated allowance. Requirements: - `spender` cannot be the zero address. - `spender` must have allowance for the caller of at least `subtractedValue`."
      },
      "increaseAllowance(address,uint256)": {
        "details": "Atomically increases the allowance granted to `spender` by the caller. This is an alternative to {approve} that can be used as a mitigation for problems described in {IERC20-approve}. Emits an {Approval} event indicating the updated allowance. Requirements: - `spender` cannot be the zero address."
      },
      "name()": {
        "details": "Returns the name of the token."
      },
      "symbol()": {
        "details": "Returns the symbol of the token, usually a shorter version of the name."
      },
      "totalSupply()": {
        "details": "See {IERC20-totalSupply}."
      },
      "transfer(address,uint256)": {
        "details": "See {IERC20-transfer}. Requirements: - `to` cannot be the zero address. - the caller must have a balance of at least `amount`."
      },
      "transferFrom(address,address,uint256)": {
        "details": "See {IERC20-transferFrom}. Emits an {Approval} event indicating the updated allowance. This is not required by the EIP. See the note at the beginning of {ERC20}. NOTE: Does not update the allowance if the current allowance is the maximum `uint256`. Requirements: - `from` and `to` cannot be the zero address. - `from` must have a balance of at least `amount`. - the caller must have allowance for ``from``'s tokens of at least `amount`."
      }
    },
    "version": 1
  },
  "userdoc": {
    "kind": "user",
    "methods": {},
    "version": 1
  }
}